:1000000009C016C015C015C013C012C011C010C061
:100010000FC00EC011241FBECFE9CDBF20E0A0E667
:10002000B0E001C01D92A536B207E1F727D04FC05E
:10003000E7CF1F920F920FB60F9211248F939F93C9
:10004000AF93BF938091600090916100A091620096
:10005000B09163000196A11DB11D80936000909343
:100060006100A0936200B0936300BF91AF919F9134
:100070008F910F900FBE0F901F9018958FB58360D2
:100080008FBD89B7826089BF83B7816083BF12BE8D
:10009000789483E886B98DE388BB82E087BB32E041
:1000A000B09B02C0C198FCCF26B32C73C9F38091DA
:1000B000640090E08095909550E082239523892BF1
:1000C00019F088B3832788BB20936400E9CFF894A4
:0200D000FFCF60
:00000001FF
